{"project/contracts/SequencerWatchdog.sol":{"SequencerWatchdog":{"abi":[{"inputs":[],"stateMutability":"nonpayable","type":"constructor"},{"anonymous":false,"inputs":[{"indexed":false,"internalType":"uint256","name":"timestamp","type":"uint256"},{"indexed":false,"internalType":"string","name":"reason","type":"string"}],"name":"EmergencyFreezeTriggered","type":"event"},{"anonymous":false,"inputs":[{"indexed":false,"internalType":"uint256","name":"timestamp","type":"uint256"}],"name":"SequencerRecovered","type":"event"},{"anonymous":false,"inputs":[{"indexed":false,"internalType":"uint256","name":"timestamp","type":"uint256"},{"indexed":false,"internalType":"uint256","name":"blocksSinceLast","type":"uint256"}],"name":"SequencerWarning","type":"event"},{"inputs":[],"name":"CRITICAL_THRESHOLD","outputs":[{"internalType":"uint256","name":"","type":"uint256"}],"stateMutability":"view","type":"function"},{"inputs":[],"name":"WARNING_THRESHOLD","outputs":[{"internalType":"uint256","name":"","type":"uint256"}],"stateMutability":"view","type":"function"},{"inputs":[],"name":"checkSequencer","outputs":[{"internalType":"bool","name":"isHealthy","type":"bool"}],"stateMutability":"nonpayable","type":"function"},{"inputs":[],"name":"emergencyFreeze","outputs":[{"internalType":"bool","name":"","type":"bool"}],"stateMutability":"view","type":"function"},{"inputs":[],"name":"getTimeSinceLastBlock","outputs":[{"internalType":"uint256","name":"","type":"uint256"}],"stateMutability":"view","type":"function"},{"inputs":[],"name":"isSequencerHealthy","outputs":[{"internalType":"bool","name":"","type":"bool"}],"stateMutability":"view","type":"function"},{"inputs":[],"name":"lastSequencerBlock","outputs":[{"internalType":"uint256","name":"","type":"uint256"}],"stateMutability":"view","type":"function"},{"inputs":[],"name":"owner","outputs":[{"internalType":"address","name":"","type":"address"}],"stateMutability":"view","type":"function"},{"inputs":[{"internalType":"uint256","name":"warning","type":"uint256"},{"internalType":"uint256","name":"critical","type":"uint256"}],"name":"setThresholds","outputs":[],"stateMutability":"nonpayable","type":"function"},{"inputs":[],"name":"unfreeze","outputs":[],"stateMutability":"nonpayable","type":"function"},{"inputs":[],"name":"updateLastBlock","outputs":[],"stateMutability":"nonpayable","type":"function"},{"stateMutability":"payable","type":"receive"}],"evm":{"bytecode":{"linkReferences":{},"object":"608080604052346100455761012c60015561025860025560038054610100600160a81b0319163360081b610100600160a81b0316179055425f55610475908161004a8239f35b5f80fdfe604060808152600436101561002c575b50361561001a575f80fd5b60ff600354161561002757005b425f55005b5f90813560e01c806303899d06146102af57806355d04aa81461027657806356e00f6b1461024c5780636a28f000146102105780636b27eea1146101f45780637f14c6d0146101d65780638da5cb5b146101aa578063dc8daf9314610185578063df08f57f14610167578063e3064a77146100d75763f3d4b942146100b1575061000f565b346100d357816003193601126100d35760209060ff6003541690519015158152f35b5080fd5b50346100d357806003193601126100d3576004356024359161010760018060a01b0360035460081c163314610406565b82821015610119575060015560025580f35b5162461bcd60e51b815260206004820152602260248201527f5761726e696e67206d757374206265206c657373207468616e20637269746963604482015261185b60f21b6064820152608490fd5b50346100d357816003193601126100d3576020906001549051908152f35b50346100d357816003193601126100d3576020906101a16102f5565b90519015158152f35b50346100d357816003193601126100d357600354905160089190911c6001600160a01b03168152602090f35b50346100d357816003193601126100d3576020906002549051908152f35b50346100d357816003193601126100d357602091549051908152f35b823461024957806003193601126102495760035461023c33600883901c6001600160a01b031614610406565b60ff191660035542815580f35b80fd5b50346100d357816003193601126100d35761026a60209254426102d4565b60015410159051908152f35b82346102495780600319360112610249576003546102a233600883901c6001600160a01b031614610406565b42825560ff191660035580f35b50346100d357816003193601126100d3576102cd60209254426102d4565b9051908152f35b919082039182116102e157565b634e487b7160e01b5f52601160045260245ffd5b6103005f54426102d4565b600254811161037657600154811161034257507fea2e2251644b37295621fec87e47940fc7a1997b2308dcb5d6976f795da0ab426020604051428152a1600190565b60407f36a748cd3c013acf31205bf1166a615417d21121c0963d52ff9510f5e8897978918151904282526020820152a15f90565b5060035460ff811615610389575b505f90565b60019060ff1916176003557fdee43c50e87979bb0bb17aa81151a8ba8f3bd3f8e8d1e77ac38f8c03f03678ec60a060405142815260406020820152602560408201527f53657175656e63657220637269746963616c207468726573686f6c6420657863606082015264195959195960da1b6080820152a15f610384565b1561040d57565b60405162461bcd60e51b815260206004820152600a60248201526927b7363c9037bbb732b960b11b6044820152606490fdfea26469706673582212205b5863cccc08272105b0b60a176683efbc91b4f7501d546c5c7266a01af6d1d264736f6c63430008140033","opcodes":"PUSH1 0x80 DUP1 PUSH1 0x40 MSTORE CALLVALUE PUSH2 0x45 JUMPI PUSH2 0x12C PUSH1 0x1 SSTORE PUSH2 0x258 PUSH1 0x2 SSTORE PUSH1 0x3 DUP1 SLOAD PUSH2 0x100 PUSH1 0x1 PUSH1 0xA8 SHL SUB NOT AND CALLER PUSH1 0x8 SHL PUSH2 0x100 PUSH1 0x1 PUSH1 0xA8 SHL SUB AND OR SWAP1 SSTORE TIMESTAMP PUSH0 SSTORE PUSH2 0x475 SWAP1 DUP2 PUSH2 0x4A DUP3 CODECOPY RETURN JUMPDEST PUSH0 DUP1 REVERT INVALID PUSH1 0x40 PUSH1 0x80 DUP2 MSTORE PUSH1 0x4 CALLDATASIZE LT ISZERO PUSH2 0x2C JUMPI JUMPDEST POP CALLDATASIZE ISZERO PUSH2 0x1A JUMPI PUSH0 DUP1 REVERT JUMPDEST PUSH1 0xFF PUSH1 0x3 SLOAD AND ISZERO PUSH2 0x27 JUMPI STOP JUMPDEST TIMESTAMP PUSH0 SSTORE STOP JUMPDEST PUSH0 SWAP1 DUP2 CALLDATALOAD PUSH1 0xE0 SHR DUP1 PUSH4 0x3899D06 EQ PUSH2 0x2AF JUMPI DUP1 PUSH4 0x55D04AA8 EQ PUSH2 0x276 JUMPI DUP1 PUSH4 0x56E00F6B EQ PUSH2 0x24C JUMPI DUP1 PUSH4 0x6A28F000 EQ PUSH2 0x210 JUMPI DUP1 PUSH4 0x6B27EEA1 EQ PUSH2 0x1F4 JUMPI DUP1 PUSH4 0x7F14C6D0 EQ PUSH2 0x1D6 JUMPI DUP1 PUSH4 0x8DA5CB5B EQ PUSH2 0x1AA JUMPI DUP1 PUSH4 0xDC8DAF93 EQ PUSH2 0x185 JUMPI DUP1 PUSH4 0xDF08F57F EQ PUSH2 0x167 JUMPI DUP1 PUSH4 0xE3064A77 EQ PUSH2 0xD7 JUMPI PUSH4 0xF3D4B942 EQ PUSH2 0xB1 JUMPI POP PUSH2 0xF JUMP JUMPDEST CALLVALUE PUSH2 0xD3 JUMPI DUP2 PUSH1 0x3 NOT CALLDATASIZE ADD SLT PUSH2 0xD3 JUMPI PUSH1 0x20 SWAP1 PUSH1 0xFF PUSH1 0x3 SLOAD AND SWAP1 MLOAD SWAP1 ISZERO ISZERO DUP2 MSTORE RETURN JUMPDEST POP DUP1 REVERT JUMPDEST POP CALLVALUE PUSH2 0xD3 JUMPI DUP1 PUSH1 0x3 NOT CALLDATASIZE ADD SLT PUSH2 0xD3 JUMPI PUSH1 0x4 CALLDATALOAD PUSH1 0x24 CALLDATALOAD SWAP2 PUSH2 0x107 PUSH1 0x1 DUP1 PUSH1 0xA0 SHL SUB PUSH1 0x3 SLOAD PUSH1 0x8 SHR AND CALLER EQ PUSH2 0x406 JUMP JUMPDEST DUP3 DUP3 LT ISZERO PUSH2 0x119 JUMPI POP PUSH1 0x1 SSTORE PUSH1 0x2 SSTORE DUP1 RETURN JUMPDEST MLOAD PUSH3 0x461BCD PUSH1 0xE5 SHL DUP2 MSTORE PUSH1 0x20 PUSH1 0x4 DUP3 ADD MSTORE PUSH1 0x22 PUSH1 0x24 DUP3 ADD MSTORE PUSH32 0x5761726E696E67206D757374206265206C657373207468616E20637269746963 PUSH1 0x44 DUP3 ADD MSTORE PUSH2 0x185B PUSH1 0xF2 SHL PUSH1 0x64 DUP3 ADD MSTORE PUSH1 0x84 SWAP1 REVERT JUMPDEST POP CALLVALUE PUSH2 0xD3 JUMPI DUP2 PUSH1 0x3 NOT CALLDATASIZE ADD SLT PUSH2 0xD3 JUMPI PUSH1 0x20 SWAP1 PUSH1 0x1 SLOAD SWAP1 MLOAD SWAP1 DUP2 MSTORE RETURN JUMPDEST POP CALLVALUE PUSH2 0xD3 JUMPI DUP2 PUSH1 0x3 NOT CALLDATASIZE ADD SLT PUSH2 0xD3 JUMPI PUSH1 0x20 SWAP1 PUSH2 0x1A1 PUSH2 0x2F5 JUMP JUMPDEST SWAP1 MLOAD SWAP1 ISZERO ISZERO DUP2 MSTORE RETURN JUMPDEST POP CALLVALUE PUSH2 0xD3 JUMPI DUP2 PUSH1 0x3 NOT CALLDATASIZE ADD SLT PUSH2 0xD3 JUMPI PUSH1 0x3 SLOAD SWAP1 MLOAD PUSH1 0x8 SWAP2 SWAP1 SWAP2 SHR PUSH1 0x1 PUSH1 0x1 PUSH1 0xA0 SHL SUB AND DUP2 MSTORE PUSH1 0x20 SWAP1 RETURN JUMPDEST POP CALLVALUE PUSH2 0xD3 JUMPI DUP2 PUSH1 0x3 NOT CALLDATASIZE ADD SLT PUSH2 0xD3 JUMPI PUSH1 0x20 SWAP1 PUSH1 0x2 SLOAD SWAP1 MLOAD SWAP1 DUP2 MSTORE RETURN JUMPDEST POP CALLVALUE PUSH2 0xD3 JUMPI DUP2 PUSH1 0x3 NOT CALLDATASIZE ADD SLT PUSH2 0xD3 JUMPI PUSH1 0x20 SWAP2 SLOAD SWAP1 MLOAD SWAP1 DUP2 MSTORE RETURN JUMPDEST DUP3 CALLVALUE PUSH2 0x249 JUMPI DUP1 PUSH1 0x3 NOT CALLDATASIZE ADD SLT PUSH2 0x249 JUMPI PUSH1 0x3 SLOAD PUSH2 0x23C CALLER PUSH1 0x8 DUP4 SWAP1 SHR PUSH1 0x1 PUSH1 0x1 PUSH1 0xA0 SHL SUB AND EQ PUSH2 0x406 JUMP JUMPDEST PUSH1 0xFF NOT AND PUSH1 0x3 SSTORE TIMESTAMP DUP2 SSTORE DUP1 RETURN JUMPDEST DUP1 REVERT JUMPDEST POP CALLVALUE PUSH2 0xD3 JUMPI DUP2 PUSH1 0x3 NOT CALLDATASIZE ADD SLT PUSH2 0xD3 JUMPI PUSH2 0x26A PUSH1 0x20 SWAP3 SLOAD TIMESTAMP PUSH2 0x2D4 JUMP JUMPDEST PUSH1 0x1 SLOAD LT ISZERO SWAP1 MLOAD SWAP1 DUP2 MSTORE RETURN JUMPDEST DUP3 CALLVALUE PUSH2 0x249 JUMPI DUP1 PUSH1 0x3 NOT CALLDATASIZE ADD SLT PUSH2 0x249 JUMPI PUSH1 0x3 SLOAD PUSH2 0x2A2 CALLER PUSH1 0x8 DUP4 SWAP1 SHR PUSH1 0x1 PUSH1 0x1 PUSH1 0xA0 SHL SUB AND EQ PUSH2 0x406 JUMP JUMPDEST TIMESTAMP DUP3 SSTORE PUSH1 0xFF NOT AND PUSH1 0x3 SSTORE DUP1 RETURN JUMPDEST POP CALLVALUE PUSH2 0xD3 JUMPI DUP2 PUSH1 0x3 NOT CALLDATASIZE ADD SLT PUSH2 0xD3 JUMPI PUSH2 0x2CD PUSH1 0x20 SWAP3 SLOAD TIMESTAMP PUSH2 0x2D4 JUMP JUMPDEST SWAP1 MLOAD SWAP1 DUP2 MSTORE RETURN JUMPDEST SWAP2 SWAP1 DUP3 SUB SWAP2 DUP3 GT PUSH2 0x2E1 JUMPI JUMP JUMPDEST PUSH4 0x4E487B71 PUSH1 0xE0 SHL PUSH0 MSTORE PUSH1 0x11 PUSH1 0x4 MSTORE PUSH1 0x24 PUSH0 REVERT JUMPDEST PUSH2 0x300 PUSH0 SLOAD TIMESTAMP PUSH2 0x2D4 JUMP JUMPDEST PUSH1 0x2 SLOAD DUP2 GT PUSH2 0x376 JUMPI PUSH1 0x1 SLOAD DUP2 GT PUSH2 0x342 JUMPI POP PUSH32 0xEA2E2251644B37295621FEC87E47940FC7A1997B2308DCB5D6976F795DA0AB42 PUSH1 0x20 PUSH1 0x40 MLOAD TIMESTAMP DUP2 MSTORE LOG1 PUSH1 0x1 SWAP1 JUMP JUMPDEST PUSH1 0x40 PUSH32 0x36A748CD3C013ACF31205BF1166A615417D21121C0963D52FF9510F5E8897978 SWAP2 DUP2 MLOAD SWAP1 TIMESTAMP DUP3 MSTORE PUSH1 0x20 DUP3 ADD MSTORE LOG1 PUSH0 SWAP1 JUMP JUMPDEST POP PUSH1 0x3 SLOAD PUSH1 0xFF DUP2 AND ISZERO PUSH2 0x389 JUMPI JUMPDEST POP PUSH0 SWAP1 JUMP JUMPDEST PUSH1 0x1 SWAP1 PUSH1 0xFF NOT AND OR PUSH1 0x3 SSTORE PUSH32 0xDEE43C50E87979BB0BB17AA81151A8BA8F3BD3F8E8D1E77AC38F8C03F03678EC PUSH1 0xA0 PUSH1 0x40 MLOAD TIMESTAMP DUP2 MSTORE PUSH1 0x40 PUSH1 0x20 DUP3 ADD MSTORE PUSH1 0x25 PUSH1 0x40 DUP3 ADD MSTORE PUSH32 0x53657175656E63657220637269746963616C207468726573686F6C6420657863 PUSH1 0x60 DUP3 ADD MSTORE PUSH5 0x1959591959 PUSH1 0xDA SHL PUSH1 0x80 DUP3 ADD MSTORE LOG1 PUSH0 PUSH2 0x384 JUMP JUMPDEST ISZERO PUSH2 0x40D JUMPI JUMP JUMPDEST PUSH1 0x40 MLOAD PUSH3 0x461BCD PUSH1 0xE5 SHL DUP2 MSTORE PUSH1 0x20 PUSH1 0x4 DUP3 ADD MSTORE PUSH1 0xA PUSH1 0x24 DUP3 ADD MSTORE PUSH10 0x27B7363C9037BBB732B9 PUSH1 0xB1 SHL PUSH1 0x44 DUP3 ADD MSTORE PUSH1 0x64 SWAP1 REVERT INVALID LOG2 PUSH5 0x6970667358 0x22 SLT KECCAK256 JUMPDEST PC PUSH4 0xCCCC0827 0x21 SDIV 0xB0 0xB6 EXP OR PUSH7 0x83EFBC91B4F750 SAR SLOAD PUSH13 0x5C7266A01AF6D1D264736F6C63 NUMBER STOP ADDMOD EQ STOP CALLER "},"methodIdentifiers":{"CRITICAL_THRESHOLD()":"7f14c6d0","WARNING_THRESHOLD()":"df08f57f","checkSequencer()":"dc8daf93","emergencyFreeze()":"f3d4b942","getTimeSinceLastBlock()":"03899d06","isSequencerHealthy()":"56e00f6b","lastSequencerBlock()":"6b27eea1","owner()":"8da5cb5b","setThresholds(uint256,uint256)":"e3064a77","unfreeze()":"6a28f000","updateLastBlock()":"55d04aa8"}}}}}