{"project/contracts/BridgeValidator.sol":{"BridgeValidator":{"abi":[{"inputs":[],"stateMutability":"nonpayable","type":"constructor"},{"anonymous":false,"inputs":[{"indexed":false,"internalType":"string","name":"reason","type":"string"}],"name":"EmergencyPause","type":"event"},{"anonymous":false,"inputs":[{"indexed":true,"internalType":"address","name":"user","type":"address"},{"indexed":false,"internalType":"uint256","name":"amount","type":"uint256"},{"indexed":false,"internalType":"uint256","name":"timestamp","type":"uint256"}],"name":"LargeTransferBlocked","type":"event"},{"anonymous":false,"inputs":[{"indexed":false,"internalType":"bytes32","name":"patternHash","type":"bytes32"},{"indexed":false,"internalType":"uint256","name":"timestamp","type":"uint256"}],"name":"PatternDetected","type":"event"},{"anonymous":false,"inputs":[{"indexed":true,"internalType":"address","name":"user","type":"address"},{"indexed":false,"internalType":"uint256","name":"amount","type":"uint256"},{"indexed":false,"internalType":"uint256","name":"timestamp","type":"uint256"}],"name":"SuspiciousTransfer","type":"event"},{"inputs":[],"name":"LARGE_TRANSFER_THRESHOLD","outputs":[{"internalType":"uint256","name":"","type":"uint256"}],"stateMutability":"view","type":"function"},{"inputs":[],"name":"RUSH_THRESHOLD","outputs":[{"internalType":"uint256","name":"","type":"uint256"}],"stateMutability":"view","type":"function"},{"inputs":[],"name":"TIME_WINDOW","outputs":[{"internalType":"uint256","name":"","type":"uint256"}],"stateMutability":"view","type":"function"},{"inputs":[{"internalType":"bytes32","name":"patternHash","type":"bytes32"}],"name":"addAttackPattern","outputs":[],"stateMutability":"nonpayable","type":"function"},{"inputs":[],"name":"emergencyPause","outputs":[{"internalType":"bool","name":"","type":"bool"}],"stateMutability":"view","type":"function"},{"inputs":[{"internalType":"string","name":"reason","type":"string"}],"name":"emergencyPauseTransfer","outputs":[],"stateMutability":"nonpayable","type":"function"},{"inputs":[],"name":"emergencyResume","outputs":[],"stateMutability":"nonpayable","type":"function"},{"inputs":[{"internalType":"address","name":"user","type":"address"}],"name":"getUserTransferCount","outputs":[{"internalType":"uint256","name":"","type":"uint256"}],"stateMutability":"view","type":"function"},{"inputs":[{"internalType":"address","name":"user","type":"address"}],"name":"isInRushMode","outputs":[{"internalType":"bool","name":"","type":"bool"}],"stateMutability":"view","type":"function"},{"inputs":[{"internalType":"bytes32","name":"","type":"bytes32"}],"name":"knownAttackPatterns","outputs":[{"internalType":"bool","name":"","type":"bool"}],"stateMutability":"view","type":"function"},{"inputs":[{"internalType":"address","name":"","type":"address"}],"name":"lastTransferTime","outputs":[{"internalType":"uint256","name":"","type":"uint256"}],"stateMutability":"view","type":"function"},{"inputs":[],"name":"owner","outputs":[{"internalType":"address","name":"","type":"address"}],"stateMutability":"view","type":"function"},{"inputs":[{"internalType":"bytes32","name":"patternHash","type":"bytes32"}],"name":"removeAttackPattern","outputs":[],"stateMutability":"nonpayable","type":"function"},{"inputs":[{"internalType":"address","name":"user","type":"address"}],"name":"resetUserCounter","outputs":[],"stateMutability":"nonpayable","type":"function"},{"inputs":[{"internalType":"uint256","name":"threshold","type":"uint256"}],"name":"setLargeTransferThreshold","outputs":[],"stateMutability":"nonpayable","type":"function"},{"inputs":[{"internalType":"uint256","name":"threshold","type":"uint256"}],"name":"setRushThreshold","outputs":[],"stateMutability":"nonpayable","type":"function"},{"inputs":[{"internalType":"address","name":"","type":"address"}],"name":"userTransferCount","outputs":[{"internalType":"uint256","name":"","type":"uint256"}],"stateMutability":"view","type":"function"},{"inputs":[{"internalType":"address","name":"user","type":"address"},{"internalType":"uint256","name":"amount","type":"uint256"},{"internalType":"bytes32","name":"transferHash","type":"bytes32"}],"name":"validateTransfer","outputs":[{"internalType":"bool","name":"isValid","type":"bool"}],"stateMutability":"nonpayable","type":"function"}],"evm":{"bytecode":{"linkReferences":{},"object":"608080604052346100d457683635c9adc5dea00000600355600a60045561012c60055560068054610100600160a81b0319163360081b610100600160a81b03161790556e149151539514905390d657d0d05313608a1b60208201908152600f82529061006a816100d8565b5190205f52600260205260405f2060ff199060018282541617905560405160208101906d42415443485f4f564552464c4f5760901b8252600e81526100ae816100d8565b5190205f526002602052600160405f20918254161790556040516107ad90816101088239f35b5f80fd5b604081019081106001600160401b038211176100f357604052565b634e487b7160e01b5f52604160045260245ffdfe6080604081815260049182361015610015575f80fd5b5f92833560e01c9182630d2d8a31146105435750816317ccc9d5146105035781632e60d931146104e457816351858e27146104c057816353b2f7191461045d578163601afbd01461042657816361dd2cf6146103f957816364b31bde146103905781636b6fe5e9146103c7578163723d91671461039057816377be49c91461035e57816384ec14e3146102245781638da5cb5b146101f757816393c87f03146101be578163bb4ea78d1461017b578163d17c7dc11461015957508063d5e42e2c146101375763f4f82959146100e8575f80fd5b81903461013457602036600319011261013457610103610577565b60018060a01b039061011d8260065460081c16331461073e565b168252816020528181812055600160205281205580f35b50fd5b50346101555781600319360112610155576020906003549051908152f35b5080fd5b90503461017757826003193601126101775760209250549051908152f35b8280fd5b905034610177576020366003190112610177576101a660018060a01b0360065460081c16331461073e565b35825260026020528120805460ff1916600117905580f35b83346101f457806003193601126101f4576006546101ea33600883901c6001600160a01b03161461073e565b60ff191660065580f35b80fd5b505034610155578160031936011261015557600654905160089190911c6001600160a01b03168152602090f35b83833461015557602090816003193601126101775767ffffffffffffffff843581811161035a573660238201121561035a57808601359082821161034757835192601f199788603f81601f87011601168501918583109083111761033457508452818352366024838301011161033057818692602487930183860137830101526006546001906102c233600883901c6001600160a01b03161461073e565b60ff1916176006558151928084528151918282860152855b83811061031d575050508394601f827f79492df8ee56e47e69f3fbc0c8eae36fb37ae353f41080681a32194aa58ce3a2968587958601015201168101030190a180f35b81810183015186820186015282016102da565b8580fd5b634e487b7160e01b885260419052602487fd5b634e487b7160e01b865260418752602486fd5b8480fd5b8390346101555760203660031901126101555761038960018060a01b0360065460081c16331461073e565b8035905580f35b5050346101555760203660031901126101555760209181906001600160a01b036103b8610577565b16815280845220549051908152f35b839034610155576020366003190112610155576103f260018060a01b0360065460081c16331461073e565b3560035580f35b905034610177576020366003190112610177578160209360ff923581526002855220541690519015158152f35b50503461015557606036600319011261015557602090610454610447610577565b60443590602435906105b2565b90519015158152f35b838334610155576020366003190112610155576020926001600160a01b03610483610577565b168352828452818320549054111591826104a1575b50519015158152f35b819250906104b59160018552205442610591565b600554119083610498565b50503461015557816003193601126101555760209060ff6006541690519015158152f35b5050346101555781600319360112610155576020906005549051908152f35b9050346101775760203660031901126101775761052e60018060a01b0360065460081c16331461073e565b35825260026020528120805460ff1916905580f35b84908434610177576020366003190112610177576020926001600160a01b0361056a610577565b1681526001845220548152f35b600435906001600160a01b038216820361058d57565b5f80fd5b9190820391821161059e57565b634e487b7160e01b5f52601160045260245ffd5b60ff600654166107005760018060a01b0316915f928084526020918483526040938486205460035482116106a2575b600454111561066e57508085526002835260ff848620541661063b575080845283825282842080545f198114610627579060018094939201905584525242912055600190565b634e487b7160e01b86526011600452602486fd5b905082917f191d3548305992585b4d6da393509e701f324137c43b93962f36a9c18336624e93519182524290820152a190565b90507f42af8dff7554d0738cb49717a31ca3a18cbc4d9b2c055e8f8f58296b3eab500692849294519182524290820152a290565b801515806106e5575b156105e1575090507ffe4fdf59974081441d025d966ba4bd80f56413e775632e3ab52760cbffb6328692849294519182524290820152a290565b50600185526106f78688205442610591565b600554116106ab565b60405162461bcd60e51b8152602060048201526016602482015275456d657267656e63792070617573652061637469766560501b6044820152606490fd5b1561074557565b60405162461bcd60e51b815260206004820152600a60248201526927b7363c9037bbb732b960b11b6044820152606490fdfea2646970667358221220f2d118182af693faf94d29ffd132aec9f8858dd01438956b26bc3c8431c0002f64736f6c63430008140033","opcodes":"PUSH1 0x80 DUP1 PUSH1 0x40 MSTORE CALLVALUE PUSH2 0xD4 JUMPI PUSH9 0x3635C9ADC5DEA00000 PUSH1 0x3 SSTORE PUSH1 0xA PUSH1 0x4 SSTORE PUSH2 0x12C PUSH1 0x5 SSTORE PUSH1 0x6 DUP1 SLOAD PUSH2 0x100 PUSH1 0x1 PUSH1 0xA8 SHL SUB NOT AND CALLER PUSH1 0x8 SHL PUSH2 0x100 PUSH1 0x1 PUSH1 0xA8 SHL SUB AND OR SWAP1 SSTORE PUSH15 0x149151539514905390D657D0D05313 PUSH1 0x8A SHL PUSH1 0x20 DUP3 ADD SWAP1 DUP2 MSTORE PUSH1 0xF DUP3 MSTORE SWAP1 PUSH2 0x6A DUP2 PUSH2 0xD8 JUMP JUMPDEST MLOAD SWAP1 KECCAK256 PUSH0 MSTORE PUSH1 0x2 PUSH1 0x20 MSTORE PUSH1 0x40 PUSH0 KECCAK256 PUSH1 0xFF NOT SWAP1 PUSH1 0x1 DUP3 DUP3 SLOAD AND OR SWAP1 SSTORE PUSH1 0x40 MLOAD PUSH1 0x20 DUP2 ADD SWAP1 PUSH14 0x42415443485F4F564552464C4F57 PUSH1 0x90 SHL DUP3 MSTORE PUSH1 0xE DUP2 MSTORE PUSH2 0xAE DUP2 PUSH2 0xD8 JUMP JUMPDEST MLOAD SWAP1 KECCAK256 PUSH0 MSTORE PUSH1 0x2 PUSH1 0x20 MSTORE PUSH1 0x1 PUSH1 0x40 PUSH0 KECCAK256 SWAP2 DUP3 SLOAD AND OR SWAP1 SSTORE PUSH1 0x40 MLOAD PUSH2 0x7AD SWAP1 DUP2 PUSH2 0x108 DUP3 CODECOPY RETURN JUMPDEST PUSH0 DUP1 REVERT JUMPDEST PUSH1 0x40 DUP2 ADD SWAP1 DUP2 LT PUSH1 0x1 PUSH1 0x1 PUSH1 0x40 SHL SUB DUP3 GT OR PUSH2 0xF3 JUMPI PUSH1 0x40 MSTORE JUMP JUMPDEST PUSH4 0x4E487B71 PUSH1 0xE0 SHL PUSH0 MSTORE PUSH1 0x41 PUSH1 0x4 MSTORE PUSH1 0x24 PUSH0 REVERT INVALID PUSH1 0x80 PUSH1 0x40 DUP2 DUP2 MSTORE PUSH1 0x4 SWAP2 DUP3 CALLDATASIZE LT ISZERO PUSH2 0x15 JUMPI PUSH0 DUP1 REVERT JUMPDEST PUSH0 SWAP3 DUP4 CALLDATALOAD PUSH1 0xE0 SHR SWAP2 DUP3 PUSH4 0xD2D8A31 EQ PUSH2 0x543 JUMPI POP DUP2 PUSH4 0x17CCC9D5 EQ PUSH2 0x503 JUMPI DUP2 PUSH4 0x2E60D931 EQ PUSH2 0x4E4 JUMPI DUP2 PUSH4 0x51858E27 EQ PUSH2 0x4C0 JUMPI DUP2 PUSH4 0x53B2F719 EQ PUSH2 0x45D JUMPI DUP2 PUSH4 0x601AFBD0 EQ PUSH2 0x426 JUMPI DUP2 PUSH4 0x61DD2CF6 EQ PUSH2 0x3F9 JUMPI DUP2 PUSH4 0x64B31BDE EQ PUSH2 0x390 JUMPI DUP2 PUSH4 0x6B6FE5E9 EQ PUSH2 0x3C7 JUMPI DUP2 PUSH4 0x723D9167 EQ PUSH2 0x390 JUMPI DUP2 PUSH4 0x77BE49C9 EQ PUSH2 0x35E JUMPI DUP2 PUSH4 0x84EC14E3 EQ PUSH2 0x224 JUMPI DUP2 PUSH4 0x8DA5CB5B EQ PUSH2 0x1F7 JUMPI DUP2 PUSH4 0x93C87F03 EQ PUSH2 0x1BE JUMPI DUP2 PUSH4 0xBB4EA78D EQ PUSH2 0x17B JUMPI DUP2 PUSH4 0xD17C7DC1 EQ PUSH2 0x159 JUMPI POP DUP1 PUSH4 0xD5E42E2C EQ PUSH2 0x137 JUMPI PUSH4 0xF4F82959 EQ PUSH2 0xE8 JUMPI PUSH0 DUP1 REVERT JUMPDEST DUP2 SWAP1 CALLVALUE PUSH2 0x134 JUMPI PUSH1 0x20 CALLDATASIZE PUSH1 0x3 NOT ADD SLT PUSH2 0x134 JUMPI PUSH2 0x103 PUSH2 0x577 JUMP JUMPDEST PUSH1 0x1 DUP1 PUSH1 0xA0 SHL SUB SWAP1 PUSH2 0x11D DUP3 PUSH1 0x6 SLOAD PUSH1 0x8 SHR AND CALLER EQ PUSH2 0x73E JUMP JUMPDEST AND DUP3 MSTORE DUP2 PUSH1 0x20 MSTORE DUP2 DUP2 DUP2 KECCAK256 SSTORE PUSH1 0x1 PUSH1 0x20 MSTORE DUP2 KECCAK256 SSTORE DUP1 RETURN JUMPDEST POP REVERT JUMPDEST POP CALLVALUE PUSH2 0x155 JUMPI DUP2 PUSH1 0x3 NOT CALLDATASIZE ADD SLT PUSH2 0x155 JUMPI PUSH1 0x20 SWAP1 PUSH1 0x3 SLOAD SWAP1 MLOAD SWAP1 DUP2 MSTORE RETURN JUMPDEST POP DUP1 REVERT JUMPDEST SWAP1 POP CALLVALUE PUSH2 0x177 JUMPI DUP3 PUSH1 0x3 NOT CALLDATASIZE ADD SLT PUSH2 0x177 JUMPI PUSH1 0x20 SWAP3 POP SLOAD SWAP1 MLOAD SWAP1 DUP2 MSTORE RETURN JUMPDEST DUP3 DUP1 REVERT JUMPDEST SWAP1 POP CALLVALUE PUSH2 0x177 JUMPI PUSH1 0x20 CALLDATASIZE PUSH1 0x3 NOT ADD SLT PUSH2 0x177 JUMPI PUSH2 0x1A6 PUSH1 0x1 DUP1 PUSH1 0xA0 SHL SUB PUSH1 0x6 SLOAD PUSH1 0x8 SHR AND CALLER EQ PUSH2 0x73E JUMP JUMPDEST CALLDATALOAD DUP3 MSTORE PUSH1 0x2 PUSH1 0x20 MSTORE DUP2 KECCAK256 DUP1 SLOAD PUSH1 0xFF NOT AND PUSH1 0x1 OR SWAP1 SSTORE DUP1 RETURN JUMPDEST DUP4 CALLVALUE PUSH2 0x1F4 JUMPI DUP1 PUSH1 0x3 NOT CALLDATASIZE ADD SLT PUSH2 0x1F4 JUMPI PUSH1 0x6 SLOAD PUSH2 0x1EA CALLER PUSH1 0x8 DUP4 SWAP1 SHR PUSH1 0x1 PUSH1 0x1 PUSH1 0xA0 SHL SUB AND EQ PUSH2 0x73E JUMP JUMPDEST PUSH1 0xFF NOT AND PUSH1 0x6 SSTORE DUP1 RETURN JUMPDEST DUP1 REVERT JUMPDEST POP POP CALLVALUE PUSH2 0x155 JUMPI DUP2 PUSH1 0x3 NOT CALLDATASIZE ADD SLT PUSH2 0x155 JUMPI PUSH1 0x6 SLOAD SWAP1 MLOAD PUSH1 0x8 SWAP2 SWAP1 SWAP2 SHR PUSH1 0x1 PUSH1 0x1 PUSH1 0xA0 SHL SUB AND DUP2 MSTORE PUSH1 0x20 SWAP1 RETURN JUMPDEST DUP4 DUP4 CALLVALUE PUSH2 0x155 JUMPI PUSH1 0x20 SWAP1 DUP2 PUSH1 0x3 NOT CALLDATASIZE ADD SLT PUSH2 0x177 JUMPI PUSH8 0xFFFFFFFFFFFFFFFF DUP5 CALLDATALOAD DUP2 DUP2 GT PUSH2 0x35A JUMPI CALLDATASIZE PUSH1 0x23 DUP3 ADD SLT ISZERO PUSH2 0x35A JUMPI DUP1 DUP7 ADD CALLDATALOAD SWAP1 DUP3 DUP3 GT PUSH2 0x347 JUMPI DUP4 MLOAD SWAP3 PUSH1 0x1F NOT SWAP8 DUP9 PUSH1 0x3F DUP2 PUSH1 0x1F DUP8 ADD AND ADD AND DUP6 ADD SWAP2 DUP6 DUP4 LT SWAP1 DUP4 GT OR PUSH2 0x334 JUMPI POP DUP5 MSTORE DUP2 DUP4 MSTORE CALLDATASIZE PUSH1 0x24 DUP4 DUP4 ADD ADD GT PUSH2 0x330 JUMPI DUP2 DUP7 SWAP3 PUSH1 0x24 DUP8 SWAP4 ADD DUP4 DUP7 ADD CALLDATACOPY DUP4 ADD ADD MSTORE PUSH1 0x6 SLOAD PUSH1 0x1 SWAP1 PUSH2 0x2C2 CALLER PUSH1 0x8 DUP4 SWAP1 SHR PUSH1 0x1 PUSH1 0x1 PUSH1 0xA0 SHL SUB AND EQ PUSH2 0x73E JUMP JUMPDEST PUSH1 0xFF NOT AND OR PUSH1 0x6 SSTORE DUP2 MLOAD SWAP3 DUP1 DUP5 MSTORE DUP2 MLOAD SWAP2 DUP3 DUP3 DUP7 ADD MSTORE DUP6 JUMPDEST DUP4 DUP2 LT PUSH2 0x31D JUMPI POP POP POP DUP4 SWAP5 PUSH1 0x1F DUP3 PUSH32 0x79492DF8EE56E47E69F3FBC0C8EAE36FB37AE353F41080681A32194AA58CE3A2 SWAP7 DUP6 DUP8 SWAP6 DUP7 ADD ADD MSTORE ADD AND DUP2 ADD SUB ADD SWAP1 LOG1 DUP1 RETURN JUMPDEST DUP2 DUP2 ADD DUP4 ADD MLOAD DUP7 DUP3 ADD DUP7 ADD MSTORE DUP3 ADD PUSH2 0x2DA JUMP JUMPDEST DUP6 DUP1 REVERT JUMPDEST PUSH4 0x4E487B71 PUSH1 0xE0 SHL DUP9 MSTORE PUSH1 0x41 SWAP1 MSTORE PUSH1 0x24 DUP8 REVERT JUMPDEST PUSH4 0x4E487B71 PUSH1 0xE0 SHL DUP7 MSTORE PUSH1 0x41 DUP8 MSTORE PUSH1 0x24 DUP7 REVERT JUMPDEST DUP5 DUP1 REVERT JUMPDEST DUP4 SWAP1 CALLVALUE PUSH2 0x155 JUMPI PUSH1 0x20 CALLDATASIZE PUSH1 0x3 NOT ADD SLT PUSH2 0x155 JUMPI PUSH2 0x389 PUSH1 0x1 DUP1 PUSH1 0xA0 SHL SUB PUSH1 0x6 SLOAD PUSH1 0x8 SHR AND CALLER EQ PUSH2 0x73E JUMP JUMPDEST DUP1 CALLDATALOAD SWAP1 SSTORE DUP1 RETURN JUMPDEST POP POP CALLVALUE PUSH2 0x155 JUMPI PUSH1 0x20 CALLDATASIZE PUSH1 0x3 NOT ADD SLT PUSH2 0x155 JUMPI PUSH1 0x20 SWAP2 DUP2 SWAP1 PUSH1 0x1 PUSH1 0x1 PUSH1 0xA0 SHL SUB PUSH2 0x3B8 PUSH2 0x577 JUMP JUMPDEST AND DUP2 MSTORE DUP1 DUP5 MSTORE KECCAK256 SLOAD SWAP1 MLOAD SWAP1 DUP2 MSTORE RETURN JUMPDEST DUP4 SWAP1 CALLVALUE PUSH2 0x155 JUMPI PUSH1 0x20 CALLDATASIZE PUSH1 0x3 NOT ADD SLT PUSH2 0x155 JUMPI PUSH2 0x3F2 PUSH1 0x1 DUP1 PUSH1 0xA0 SHL SUB PUSH1 0x6 SLOAD PUSH1 0x8 SHR AND CALLER EQ PUSH2 0x73E JUMP JUMPDEST CALLDATALOAD PUSH1 0x3 SSTORE DUP1 RETURN JUMPDEST SWAP1 POP CALLVALUE PUSH2 0x177 JUMPI PUSH1 0x20 CALLDATASIZE PUSH1 0x3 NOT ADD SLT PUSH2 0x177 JUMPI DUP2 PUSH1 0x20 SWAP4 PUSH1 0xFF SWAP3 CALLDATALOAD DUP2 MSTORE PUSH1 0x2 DUP6 MSTORE KECCAK256 SLOAD AND SWAP1 MLOAD SWAP1 ISZERO ISZERO DUP2 MSTORE RETURN JUMPDEST POP POP CALLVALUE PUSH2 0x155 JUMPI PUSH1 0x60 CALLDATASIZE PUSH1 0x3 NOT ADD SLT PUSH2 0x155 JUMPI PUSH1 0x20 SWAP1 PUSH2 0x454 PUSH2 0x447 PUSH2 0x577 JUMP JUMPDEST PUSH1 0x44 CALLDATALOAD SWAP1 PUSH1 0x24 CALLDATALOAD SWAP1 PUSH2 0x5B2 JUMP JUMPDEST SWAP1 MLOAD SWAP1 ISZERO ISZERO DUP2 MSTORE RETURN JUMPDEST DUP4 DUP4 CALLVALUE PUSH2 0x155 JUMPI PUSH1 0x20 CALLDATASIZE PUSH1 0x3 NOT ADD SLT PUSH2 0x155 JUMPI PUSH1 0x20 SWAP3 PUSH1 0x1 PUSH1 0x1 PUSH1 0xA0 SHL SUB PUSH2 0x483 PUSH2 0x577 JUMP JUMPDEST AND DUP4 MSTORE DUP3 DUP5 MSTORE DUP2 DUP4 KECCAK256 SLOAD SWAP1 SLOAD GT ISZERO SWAP2 DUP3 PUSH2 0x4A1 JUMPI JUMPDEST POP MLOAD SWAP1 ISZERO ISZERO DUP2 MSTORE RETURN JUMPDEST DUP2 SWAP3 POP SWAP1 PUSH2 0x4B5 SWAP2 PUSH1 0x1 DUP6 MSTORE KECCAK256 SLOAD TIMESTAMP PUSH2 0x591 JUMP JUMPDEST PUSH1 0x5 SLOAD GT SWAP1 DUP4 PUSH2 0x498 JUMP JUMPDEST POP POP CALLVALUE PUSH2 0x155 JUMPI DUP2 PUSH1 0x3 NOT CALLDATASIZE ADD SLT PUSH2 0x155 JUMPI PUSH1 0x20 SWAP1 PUSH1 0xFF PUSH1 0x6 SLOAD AND SWAP1 MLOAD SWAP1 ISZERO ISZERO DUP2 MSTORE RETURN JUMPDEST POP POP CALLVALUE PUSH2 0x155 JUMPI DUP2 PUSH1 0x3 NOT CALLDATASIZE ADD SLT PUSH2 0x155 JUMPI PUSH1 0x20 SWAP1 PUSH1 0x5 SLOAD SWAP1 MLOAD SWAP1 DUP2 MSTORE RETURN JUMPDEST SWAP1 POP CALLVALUE PUSH2 0x177 JUMPI PUSH1 0x20 CALLDATASIZE PUSH1 0x3 NOT ADD SLT PUSH2 0x177 JUMPI PUSH2 0x52E PUSH1 0x1 DUP1 PUSH1 0xA0 SHL SUB PUSH1 0x6 SLOAD PUSH1 0x8 SHR AND CALLER EQ PUSH2 0x73E JUMP JUMPDEST CALLDATALOAD DUP3 MSTORE PUSH1 0x2 PUSH1 0x20 MSTORE DUP2 KECCAK256 DUP1 SLOAD PUSH1 0xFF NOT AND SWAP1 SSTORE DUP1 RETURN JUMPDEST DUP5 SWAP1 DUP5 CALLVALUE PUSH2 0x177 JUMPI PUSH1 0x20 CALLDATASIZE PUSH1 0x3 NOT ADD SLT PUSH2 0x177 JUMPI PUSH1 0x20 SWAP3 PUSH1 0x1 PUSH1 0x1 PUSH1 0xA0 SHL SUB PUSH2 0x56A PUSH2 0x577 JUMP JUMPDEST AND DUP2 MSTORE PUSH1 0x1 DUP5 MSTORE KECCAK256 SLOAD DUP2 MSTORE RETURN JUMPDEST PUSH1 0x4 CALLDATALOAD SWAP1 PUSH1 0x1 PUSH1 0x1 PUSH1 0xA0 SHL SUB DUP3 AND DUP3 SUB PUSH2 0x58D JUMPI JUMP JUMPDEST PUSH0 DUP1 REVERT JUMPDEST SWAP2 SWAP1 DUP3 SUB SWAP2 DUP3 GT PUSH2 0x59E JUMPI JUMP JUMPDEST PUSH4 0x4E487B71 PUSH1 0xE0 SHL PUSH0 MSTORE PUSH1 0x11 PUSH1 0x4 MSTORE PUSH1 0x24 PUSH0 REVERT JUMPDEST PUSH1 0xFF PUSH1 0x6 SLOAD AND PUSH2 0x700 JUMPI PUSH1 0x1 DUP1 PUSH1 0xA0 SHL SUB AND SWAP2 PUSH0 SWAP3 DUP1 DUP5 MSTORE PUSH1 0x20 SWAP2 DUP5 DUP4 MSTORE PUSH1 0x40 SWAP4 DUP5 DUP7 KECCAK256 SLOAD PUSH1 0x3 SLOAD DUP3 GT PUSH2 0x6A2 JUMPI JUMPDEST PUSH1 0x4 SLOAD GT ISZERO PUSH2 0x66E JUMPI POP DUP1 DUP6 MSTORE PUSH1 0x2 DUP4 MSTORE PUSH1 0xFF DUP5 DUP7 KECCAK256 SLOAD AND PUSH2 0x63B JUMPI POP DUP1 DUP5 MSTORE DUP4 DUP3 MSTORE DUP3 DUP5 KECCAK256 DUP1 SLOAD PUSH0 NOT DUP2 EQ PUSH2 0x627 JUMPI SWAP1 PUSH1 0x1 DUP1 SWAP5 SWAP4 SWAP3 ADD SWAP1 SSTORE DUP5 MSTORE MSTORE TIMESTAMP SWAP2 KECCAK256 SSTORE PUSH1 0x1 SWAP1 JUMP JUMPDEST PUSH4 0x4E487B71 PUSH1 0xE0 SHL DUP7 MSTORE PUSH1 0x11 PUSH1 0x4 MSTORE PUSH1 0x24 DUP7 REVERT JUMPDEST SWAP1 POP DUP3 SWAP2 PUSH32 0x191D3548305992585B4D6DA393509E701F324137C43B93962F36A9C18336624E SWAP4 MLOAD SWAP2 DUP3 MSTORE TIMESTAMP SWAP1 DUP3 ADD MSTORE LOG1 SWAP1 JUMP JUMPDEST SWAP1 POP PUSH32 0x42AF8DFF7554D0738CB49717A31CA3A18CBC4D9B2C055E8F8F58296B3EAB5006 SWAP3 DUP5 SWAP3 SWAP5 MLOAD SWAP2 DUP3 MSTORE TIMESTAMP SWAP1 DUP3 ADD MSTORE LOG2 SWAP1 JUMP JUMPDEST DUP1 ISZERO ISZERO DUP1 PUSH2 0x6E5 JUMPI JUMPDEST ISZERO PUSH2 0x5E1 JUMPI POP SWAP1 POP PUSH32 0xFE4FDF59974081441D025D966BA4BD80F56413E775632E3AB52760CBFFB63286 SWAP3 DUP5 SWAP3 SWAP5 MLOAD SWAP2 DUP3 MSTORE TIMESTAMP SWAP1 DUP3 ADD MSTORE LOG2 SWAP1 JUMP JUMPDEST POP PUSH1 0x1 DUP6 MSTORE PUSH2 0x6F7 DUP7 DUP9 KECCAK256 SLOAD TIMESTAMP PUSH2 0x591 JUMP JUMPDEST PUSH1 0x5 SLOAD GT PUSH2 0x6AB JUMP JUMPDEST PUSH1 0x40 MLOAD PUSH3 0x461BCD PUSH1 0xE5 SHL DUP2 MSTORE PUSH1 0x20 PUSH1 0x4 DUP3 ADD MSTORE PUSH1 0x16 PUSH1 0x24 DUP3 ADD MSTORE PUSH22 0x456D657267656E637920706175736520616374697665 PUSH1 0x50 SHL PUSH1 0x44 DUP3 ADD MSTORE PUSH1 0x64 SWAP1 REVERT JUMPDEST ISZERO PUSH2 0x745 JUMPI JUMP JUMPDEST PUSH1 0x40 MLOAD PUSH3 0x461BCD PUSH1 0xE5 SHL DUP2 MSTORE PUSH1 0x20 PUSH1 0x4 DUP3 ADD MSTORE PUSH1 0xA PUSH1 0x24 DUP3 ADD MSTORE PUSH10 0x27B7363C9037BBB732B9 PUSH1 0xB1 SHL PUSH1 0x44 DUP3 ADD MSTORE PUSH1 0x64 SWAP1 REVERT INVALID LOG2 PUSH5 0x6970667358 0x22 SLT KECCAK256 CALLCODE 0xD1 XOR XOR 0x2A 0xF6 SWAP4 STATICCALL 0xF9 0x4D 0x29 SELFDESTRUCT 0xD1 ORIGIN 0xAE 0xC9 0xF8 DUP6 DUP14 0xD0 EQ CODESIZE SWAP6 PUSH12 0x26BC3C8431C0002F64736F6C PUSH4 0x43000814 STOP CALLER "},"methodIdentifiers":{"LARGE_TRANSFER_THRESHOLD()":"d5e42e2c","RUSH_THRESHOLD()":"d17c7dc1","TIME_WINDOW()":"2e60d931","addAttackPattern(bytes32)":"bb4ea78d","emergencyPause()":"51858e27","emergencyPauseTransfer(string)":"84ec14e3","emergencyResume()":"93c87f03","getUserTransferCount(address)":"723d9167","isInRushMode(address)":"53b2f719","knownAttackPatterns(bytes32)":"61dd2cf6","lastTransferTime(address)":"0d2d8a31","owner()":"8da5cb5b","removeAttackPattern(bytes32)":"17ccc9d5","resetUserCounter(address)":"f4f82959","setLargeTransferThreshold(uint256)":"6b6fe5e9","setRushThreshold(uint256)":"77be49c9","userTransferCount(address)":"64b31bde","validateTransfer(address,uint256,bytes32)":"601afbd0"}}}}}